S31500027000E8320120C9730200D1730200D373020071
S31500027010D5730200D7730200D97302000000000084
S31500027020000000000000000000000000DB73020008
S31500027030DD73020000000000DF730200E17302004C
S3150002704025B90200E373020015CA0200B9C40200A0
S31500027050C9C40200E373020061B10200D5BF020097
S31500027060E373020009C90200E3730200E37302003C
S31500027070E3730200E3730200E3730200E3730200A8
S31500027080F9CA020075BF0200E3730200E37302004D
S31500027090E3730200E37302002DC50200E3730200EC
S315000270A0E3730200E3730200E3730200E373020078
S315000270B0E3730200E3730200000000000000000018
S315000270C0E3730200E3730200E3730200D9C4020011
S315000270D085BF0200E3730200E3730200E37302005A
S315000270E0E3730200E3730200E37302000000000090
S315000270F000000000E3730200000000001DC502004C
S315000271000000000000000000000000000000000077
S315000271100000000000000000000000000000000067
S315000271200000000000000000000000000000000057
S315000271300000000000000000000000000000000047
S315000271400000000000000000000000000000000037
S315000271500000000000000000000000000000000027
S315000271600000000000000000000000000000000017
S315000271700000000000000000000000000000000007
S3150002718000000000000000000000000000000000F7
S3150002719000000000000000000000000000000000E7
S315000271A000000000000000000000000000000000D7
S315000271B000000000000000000000000000000000C7
S315000271C000000000000000000000000000000000B7
S315000271D000000000000000000000000000000000A7
S315000271E00000000000000000000000000000000097
S315000271F00000000000000000000000000000000087
S31500027200DFF814D000F0C0FE00F056FA004800473E
S315000272104D91030000F082FDE832012030B40446AD
S3150002722054E8000F0D4644E80053002BF8D11560D0
S3150002723030BC704730B4044654E8000F40EA0105FA
S3150002724044E80053002BF7D1156030BC704730B4C8
S31500027250044654E8000F00EA010544E80053002BF7
S31500027260F7D1156030BC704730B4044654E8000FBD
S3150002727080EA010544E80053002BF7D1156030BCC3
S31500027280704730B4044654E8000F00EB010544E8A9
S315000272900053002BF7D1156030BC704730B404465A
S315000272A054E8000FA0EB010544E80053002BF7D188
S315000272B0156030BC704770B404464FF0000054E8C5
S315000272C0006F0D68AE4207BF44E80023012044E880
S315000272D000630E60002B1CBF0020F0E770BC7047F5
S315000272E030B4044654E8000F88422CBF451A0546BE
S315000272F044E80053002BF5D1156030BC70470000FE
S3150002730030B450E8012F93B2C48923448489A3423E
S3150002731028BF1B1B0489A34202BFBFF32F8F002085
S3150002732007E0C3EA020340E80134002CE9D14FF03A
S3150002733001000A6030BC704750E8012FC2EA0242DF
S3150002734040E801210029F7D1704730B450E8022FF6
S315000273501FFAA2F3C488A34202BFBFF32F8F0020F5
S315000273600DE0C48923448489A34228BF1B1BC2EAB9
S31500027370034340E80234002CE8D14FF001000A60D2
S3150002738030BC704750E8022FC2EA224240E802218E
S315000273900029F7D17047034653E8022FD988B2EB8A
S315000273A0324F4FF0000017BF92B241EA014142EA62
S315000273B0014104E05A68B2EB324F08BF012043E8AC
S315000273C00212002AE8D1704706488047064800475D
S315000273D0FEE7FEE7FEE7FEE7FEE7FEE7FEE7FEE77D
S315000273E0FEE7FEE735C70200017202002DE9F05FF3
S315000273F00546002092469B4688460646814640241C
S315000274001BE0284641464746224600F02FF85346DF
S315000274105A46C01A914110D311461846224600F028
S3150002742016F82D1A67EB01084F4622460120002165
S3150002743000F00DF817EB00094E41201EA4F10104DD
S31500027440DFDC484631462A464346BDE8F09F202AFD
S3150002745004DB203A00FA02F1002070479140C2F1A3
S31500027460200320FA03F3194390407047202A04DBD5
S31500027470203A21FA02F00021704721FA02F3D040A5
S31500027480C2F12002914008431946704700487047EE
S31500027490903A0A0010B50446FFF7F8FF0068005D4F
S315000274A000F0010010BD00000649074A0868504373
S315000274B043F23902104408604008704701490860E7
S315000274C070470000003F00206D4EC64138B5D0E936
S315000274D00221491E01EB410102EBC1014268C1EBE7
S315000274E0011102EB81010268C1EB011102EB81027B
S315000274F0D0E9043101EB410103EB81013023A1F50F
S31500027500527191FBF3F4174D6C4302EBC41291FBDB
S31500027510F3F403FB141100921A2902DB124B1A44EC
S3150002752000920C2291FBF2F3104C6343009C04EB95
S31500027530C313009391FBF2F302FB13110C4A08E00A
S31500027540491E40F2A324535C6343009C04EBC3131D
S3150002755000930029F4DC0146684600F00FFB009810
S3150002756038BD00003F0C0F008051010067C20300C6
S31500027570943A0A0010B5431A934209D2831888181E
S3150002758003E010F8011D03F8011D521EF9D210BDC9
S3150002759040EA01039B0703D009E008C9121F08C08D
S315000275A0042AFAD203E011F8013B00F8013B521E0D
S315000275B0F9D210BDD2B201E000F8012B491EFBD26E
S315000275C070470022F6E710B513460A4604461946E6
S315000275D0FFF7F0FF204610BD421E12F8013F002BB6
S315000275E0FBD111F8013B02F8013B002BF9D17047A0
S315000275F030B505462A460B4612F8010B13F8014B25
S3150002760008B1A042F8D01CB1002802D06D1CF1E7E7
S31500027610284630BD10B5044604E00B7800F8013B5D
S3150002762003B1491C521EF8D2204610BD421C10F866
S31500027630011B0029FBD1801A704710B5002200E019
S31500027640521C835C8C5CA34201D1002BF8D1D8B2C8
S31500027650E1B2401A10BD30B504460020034600E0F0
S315000276605B1C934203D2E05CCD5C401BF8D030BD7C
S31500027670034611F8012B00F8012B002AF9D118460E
S31500027680704770B5064606F031FD046805460A22C3
S315000276900021304600F006FB2C6070BD70B5064630
S315000276A006F024FD046805460A220021304600F051
S315000276B0F9FA2C6070BD000070B5054C054D03E06B
S315000276C0206820448047241DAC42F9D170BD0000D9
S315000276D01C5A0A00245A0A002DE9F04107461546AB
S315000276E00E46102007F080FD04000AD06760C4E948
S315000276F0026500F00FFB0168216004600020BDE80E
S31500027700F0810120FBE72DE9FE4F804681EA030066
S31500027710C00F0C46009021F0004123F00045B8EB63
S315000277200200A94105D24046214690461C460B4618
S31500027730024623F00040104347D0270DC7F30A0044
S31500027740C3F30A510290401A019040286BDAC3F340
S31500027750130040F4801B0098924620B10023D2EB1E
S31500027760030A63EB0B0B01985946C0F140025046DF
S31500027770FFF76DFE06460D4650465946019A00F041
S31500027780E5F910EB08006141002487EA115284EA08
S31500027790E7731A4340D0009A62B3019A012A4FEA6C
S315000277A0075215DC001B61EB02014FF0004202EAB0
S315000277B00752CDE90042001C41F5801132462B46A4
S315000277C000F013FB03B0BDE8F08F40462146F9E70F
S315000277D0001B61EB0201001C41F5801300185B419E
S315000277E02018A2F5001747EB030140EAD570B61937
S315000277F06D4111E06D084FEA360645EAC0754FEA5B
S315000278000752001B61EB0201001C41F58011490879
S315000278104FEA30000019514132462B4603B0BDE80B
S31500027820F04F00F0D3BA0098012240000023D0EBBB
S31500027830020263EBE073009821464FEAE074B8EB6C
S31500027840000061EB0401E9E783F000435BE781F0A6
S31500027850004158E72DE9FE4F81EA030404F0004493
S3150002786021F0004100944FF0000B23F0004350EA50
S3150002787001045ED052EA03045BD0C3F30A54C1F397
S315000278800A552C44A4F2F3340194A0FB0254C1F32A
S31500027890130141F48011C3F3130343F4801301FB74
S315000278A0024400FB034E840A970A44EA815447EADB
S315000278B08357A4FB076802958D0A05FB07854FEAE5
S315000278C0932C04FB0C542705029D4FEA065847EAFF
S315000278D01637B5EB08056EEB070C870E920E47EAD4
S315000278E0811742EA8312A7FB0201B6EB0B0164EB96
S315000278F000042B0D43EA0C335E1844EB1C50DA46A7
S315000279005146E7FB0201C5F313044FEA0B3343EA80
S3150002791014534FEA0432019C43EA0603A4F10C0411
S315000279200294009CCDE900B400F05FFA03B0BDE812
S31500027930F08F00200146F9E72DE9F04D81EA0304B4
S3150002794004F0004B21F0004514464FF0000A23F0E4
S31500027950004150EA050220D054EA01021DD0C5F3C7
S315000279600A570246C5F31303C1F31300C1F30A56BD
S3150002797040F4801543F48013A7EB0608101BD64685
S3150002798008F2FD3873EB050002D308F1010801E0A5
S3150002799092185B41B8F1000F03DA00200146BDE8F8
S315000279A0F08D00204FF48011064684460EE0171B28
S315000279B073EB050705D3121B63EB050306434CEA7B
S315000279C0010C49084FEA300092185B4150EA010760
S315000279D0EDD152EA030012D082EA040083EA0501DD
S315000279E0084305D0101BAB4106D20122002306E054
S315000279F000224FF0004302E06FF0010253101AEB2F
S31500027A0006004CEB085110EB0A0041EB0B01BDE8F6
S31500027A10F04D00F0DBB90EB5C10F80EAE070084404
S31500027A20CA07002140F233438DE80E000A460B4690
S31500027A3000F0DBF903B000BD0EB540F2334102910E
S31500027A400021CDE900110A460B4600F0CEF903B03B
S31500027A5000BD70B5C1F30A5201F000450024C1F31E
S31500027A60130140F2FF3341F480119A4201DA0020F9
S31500027A7070BD40F233439A42A2F2334203DC5242D1
S31500027A80FFF7F4FC00E090402C43F1D0404270BD79
S31500027A9000F0004230F000400AD0C10D01F56071DD
S31500027AA0C0F3160042EA0151C2084007114370476B
S31500027AB0002001467047000030B5041E71F1000433
S31500027AC004DB4FF00044404264EB0101141E73F1E3
S31500027AD0000405DB1C464FF00043524263EB0403ED
S31500027AE08B4208BF824230BD01F0004330B421F020
S31500027AF0004150EA010206D00A0DA2F56072C1F3F6
S31500027B001301002A02DC30BC00207047440F44EA0D
S31500027B10C104C100E01830BC00EBC25000F01FB92E
S31500027B2030B50B46014600202022012409E021FA45
S31500027B3002F59D4205D303FA02F5491B04FA02F542
S31500027B402844151EA2F10102F1DC30BD202A06DB13
S31500027B50CB17203A41FA02F043EAE07306E041FA13
S31500027B6002F3D040C2F12002914008431946704701
S31500027B70014900F003B80000BCB2002010B500684D
S31500027B803C22B0FBF2F302FB1303B0FBF2F00B60F4
S31500027B90B0FBF2F302FB1303B0FBF2F018224B60C8
S31500027BA0B0FBF2F302FB1303B0FBF2F0021D8B6093
S31500027BB00723B2FBF3F403FB1422800040F2B55311
S31500027BC000F66C308A61B0FBF3F2B0FBF3F403FB10
S31500027BD01400443280084A61C8613B2802D39207E6
S31500027BE000D0401C0022074C13460A61E25C824226
S31500027BF003D8801A5B1C0B61F8E7401CC860084674
S31500027C0010BD0000603C0A000FB4002300B589B025
S31500027C100CA900910B996FF00042CB601E4B0693A4
S31500027C201E4B07930423CDE901321D4A08920246F0
S31500027C306B46002000F04EFA09B05DF814FB70B5F1
S31500027C4086B006464FF0FF300091CDE901010020D3
S31500027C5015460C4604903246694604A8FFF7D4FF3F
S31500027C6002460498211825B108B1084600E02046CC
S31500027C702860049800280DD0002A02DD0098884268
S31500027C8008D0081B0094CDE901043246694604A8CF
S31500027C90FFF7BAFF06B070BD0D8302002B83020008
S31500027CA0957402002DE9F04791460F468046044638
S31500027CB0002614F8015B2DB1FFF7E8FB0068405D72
S31500027CC0C007F6D12B2D02D02D2D18D0641E4A46A0
S31500027CD03946204600F03AFB27B13968A14201D164
S31500027CE0C7F8008071054FF002040BD54042002808
S31500027CF003DD06F0FBF90460A007BDE8F08746F451
S31500027D008066E4E70028F8DA06F0F0F904606FF01E
S31500027D100040F2E700487047103F00202DE9F0418D
S31500027D200646FFF7F7FF8046454613E016B1E068C0
S31500027D30B0420ED120682860D4E90101D8F800705B
S31500027D408847204606F0D6F9D8F80000B842EBD1AB
S31500027D5000E025462C68002CE8D1BDE8F081002918
S31500027D60A8BF7047401C490008BF20F001007047B9
S31500027D7010B4B0FA80FC00FA0CF050EA010404BF19
S31500027D8010BC704749B1CCF1200421FA04F411FA6F
S31500027D900CF118BF012121430843A3EB0C01CB1DB3
S31500027DA04FEA00614FEA102042BF002010BC704724
S31500027DB000EBC35010440029A4BF10BC7047401CFE
S31500027DC0490008BF20F0010010BC704710B5141E10
S31500027DD073F1000408DA401C41F1000192185B417C
S31500027DE01A4301D120F0010010BD2DE9F04D924653
S31500027DF09B4611B1B1FA81F202E0B0FA80F220326A
S31500027E009046FFF724FB04460F4640EA0A0041EA81
S31500027E100B0153465A46084313D0114653EA010052
S31500027E2019D0C8F140025046FFF720FB05460E4620
S31500027E30504659464246FFF70AFB084305D0012041
S31500027E4004E020463946BDE8F08D0020054346EAA7
S31500027E50E0762C4337430A986305E40AA0EB080050
S31500027E600022FD0A44EA47540A3002D500200146A0
S31500027E70E9E7010510196941DDE90845001969417B
S31500027E80BDE8F04DA2E72DE9F04D00231A461B1A74
S31500027E908A4103DB00200146BDE8F08DC1F30A5298
S31500027EA0C1F3130141F480154FF0000BD10702D143
S31500027EB000186D41521E0027044640F2FF11384653
S31500027EC001EB620A3E468046024600204FF48011CC
S31500027ED0FFF7CCFAC2197141BB1846EB0100B4EBAD
S31500027EE0030C75EB000C04D3E41A65EB0005174688
S31500027EF00E46241908F101006D4180463428E3DD5F
S31500027F00F91946EB0600091BA84103D24FF0FF32CE
S31500027F10134601E0002213461BEB070046EB0A510B
S31500027F20BDE8F04DFFF752BFC1F30A52C1F3130188
S31500027F3040F2FF3341F480119A4202DA00200146F0
S31500027F40704740F233439A42A2F2334202DC524273
S31500027F50FFF78CBAFFF77BBA30B5041E71F1000445
S31500027F6004DB4FF00044404264EB0101141E73F13E
S31500027F70000405DB1C464FF00043524263EB040348
S31500027F80994208BF904230BD064C074D06E0E068B4
S31500027F9040F0010394E8070098471034AC42F6D348
S31500027FA0FFF732F9AC570A00CC570A002DE9FF4F0A
S31500027FB0087883B09946FF2805D0491C2D2804D09D
S31500027FC00024002008E000200BE00124F9E700EB82
S31500027FD0800003EB4000491C0B78FF2BF7D104B15C
S31500027FE0404200230293147819461D462D2C01D0D7
S31500027FF02B2C04D1521C2D2C13D000240294AA46F9
S315000280001478FF2C0FD00A25A3FB057801FB058106
S315000280104FF0000C03FB0C11521CE3194AEB010151
S31500028020EEE70124EAE7814453EA010002D019F59A
S31500028030C87F06DA03980021C0E9001107B0BDE83F
S31500028040F08F0025AE4E2F46DFF8B882184600F0B4
S31500028050DBF9CDE90001B9F1000002DAC9F1000449
S3150002806000E004460023A74A1AEB030B42EB045A2C
S3150002807012E0E00707D02A46334638464146FFF764
S31500028080E9FB074688462A46334610461946FFF755
S31500028090E1FB05460E466410002CEAD1DDE900013B
S315000280A0B9F1000F5A46534606DAFFF745FC3A463F
S315000280B04346FFF741FC05E0FFF7CCFB3A46434651
S315000280C0FFF7C8FB029A0AB181F00041039AC2E99E
S315000280D00001B3E72DE9FF4F1F468DB0D7E90146F0
S315000280E04FF0FF382E2045464FF000090B90B96934
S315000280F06D1C0E988847396A824688470028F6D151
S31500028100BAF1FF3F0AD024F4D064002E11DDBAF191
S315000281102B0F08D0BAF12D0F0BD102E0404611B059
S315000281208DE744F48064B9696D1C0E9888478246CF
S31500028130761E6946600501D52D2000E02B208DF8BC
S31500028140000001F1010B0DF1200809E0B9696D1C6F
S315000281500E98884782460F9844F40074761E05608E
S31500028160002E02DDBAF1300FF0D00B998A453ED1CE
S3150002817044F0800406E00F99681CA9F1010944F451
S3150002818000740860B9696D1C761E0E98884782468F
S315000281903028F0D02BE00B998A4505D1200603D46E
S315000281A044F08004761E18E0504607F033FA08B30E
S315000281B00DF11301761E44F400748B4508D2AAF120
S315000281C030000BF8010B200607D5A9F1010003E0E8
S315000281D0200602D409F101008146A00502D50F99B5
S315000281E0681C0860B9696D1C0E9888478246002E85
S315000281F0D1DC53E0002E51DDBAF1650F02D0BAF19F
S31500028200450F4BD1A00549D5B9696D1C24F44074BC
S31500028210761E0E9888478246002E0CDD2B2804D047
S31500028220BAF12D0F07D144F48074B9696D1C0E980A
S3150002823088478246761EE00501D52D2100E02B21D6
S3150002824008F8011BCDF82C8021E00DF12901761EDC
S3150002825044F4007488450CD2AAF1300010F0FF00F5
S3150002826088F8000002D10B99884509D908F101085E
S3150002827006E0E00501D5244801E042F20F7081468E
S31500028280B9696D1C0E98884782460F980560002EC4
S3150002829004DD504607F0BEF90028D6D1F9690E98DA
S315000282A08847FF208BF8000088F80000002006901F
S315000282B007904B466A4608A906A8FFF777FEA0056F
S315000282C002D46FF001002AE714F0240F0AD0E00767
S315000282D014D1DDE906123868031D3B600068C0E967
S315000282E000120BE0DDE90601FFF7FEFB0146E0079F
S315000282F004D13868021D3A600068016028460EE71C
S31500028300000014400000F03FF1D8FFFF426842B17E
S31500028310016811F8013B23B1521EC0E9001218464A
S3150002832070470121C160881E704742685AB1C3680E
S31500028330016843B983688B4205D0491E521CC0E9C5
S315000283400012002070474FF0FF3070472DE9F05FB2
S3150002835082460078002715468B460AF10104B94683
S31500028360302801D09DB113E014F8010B01277828BB
S3150002837003D0582801D045B10AE00DB1102D07D11E
S315000283800027102514F8010B02E0082500E00A2553
S315000283900026B0460EE005FB080005FB06F10127A4
S315000283A001EB10461FFA80F8B6F5803F00D3B946B6
S315000283B014F8010B294600F019F80028EBDABBF194
S315000283C0000F05D00FB1641E00E05446CBF8004002
S315000283D0B9F1000F06D005F089FE02210160C81E20
S315000283E0BDE8F09F48EA0640FAE770473A2800D20D
S315000283F0303820F02002412A01D3A2F13700884208
S3150002840001D34FF0FF3070470EB540F2334202926D
S315000284100022CDE900221346FFF7E7FC03B000BDB8
S3150002842070B58C1810F8015B15F0070301D110F82E
S31500028430013B2A1106D110F8012B03E010F8016B5B
S3150002844001F8016B5B1EF9D12B0705D40023521EDE
S315000284500DD401F8013BFAE710F8013BCB1A921C46
S3150002846003E013F8015B01F8015B521EF9D5A14244
S31500028470D8D3002070BD00002DE9FF4F83B05FEA1C
S31500028480000810A8914690E8A0083548354ADDF85C
S315000284904CA0A0EB02004FEAD0004FF005021C46AA
S315000284A002EB004616D0ACB1A5B10020208603F03F
S315000284B059F890F8C5006086C4F8008004994046D1
S315000284C02172BAF1000F01D0C4F824A0297A012939
S315000284D00BD00FE02448009030467D2323A229A129
S315000284E012F037FE07B0BDE8F08FB9F1000F0CD0DD
S315000284F0C4F82090A562BBF1000F01D0C4F81CB0ED
S315000285000020606177B13C610DE017498C23083188
S3150002851021620839CDE90010304614A227A112F0D3
S3150002852021FEE7E72F46E7626969A1B1A8692061E2
S31500028530A8694461AC61286A401C2862A063D5E937
S3150002854005014861D5E90501016107B02046BDE88C
S31500028550F04F0DF075BF24616C61AC61EDE7000070
S3150002856074580A00DC570A00355204002E5C6C6906
S31500028570625C4D69616F55495C636F72655C7569D2
S315000285802E6300005B4D69616F5549204C4F475D74
S315000285902D3E464154414C3A0A4025733A25643AE7
S315000285A025733A496E76616C696420706172616DF9
S315000285B0657465722873290A0A0000005B4D6961B9
S315000285C06F5549204C4F475D2D3E464154414C3A2A
S315000285D00A4025733A25643A25733A2573203A20D0
S315000285E0496D616765206973206E756C6C210A0A94
S315000285F000000000002900D04860704738B5144AD0
S31500028600144BD21AD208052303EB024468B161B1B6
S315000286100160406180618A6982B15169C0E90512CF
S3150002862088615061826862B90AE00B480090204670
S31500028630DC230AA20F4912F08CFD38BD8861F1E7EE
S315000286400DA22046BDE838400DA112F073BD000010
S3150002865074580A00DC570A00C55204002E5C6C6985
S31500028660625C4D69616F55495C636F72655C7569E1
S315000286702E63000064540A004E554C4C0000000064
S315000286805B4D69616F5549204C4F475D2D3E494E02
S31500028690464F3A0A416464204D6963726F2025731E
S315000286A00A0A0000086000204861886101204872B9
S315000286B00A7203B1CB6008460EF012B8F0B5ABB041
S315000286C04FF48041002012F0BDFD08B107F02AFCEC
S315000286D012F002FC07F0EAFD08B107F023FC12F0E3
S315000286E031FF08B107F01EFC13F0FAF908B107F0E2
S315000286F019FC002469460120009413F081F808B1A0
S3150002870007F010FC684613F0FBF808B107F00AFC04
S3150002871017F0FCFE0EF072FA00213B4810F0B6FF8D
S3150002872008B107F0FFFB1C216846FEF74AFF4FF42B
S31500028730A030CDE900404FF4F020032602908DF8D8
S315000287400C604FF6FF70ADF80E0001252F488DF82C
S315000287501050CDE90540684608F084FC08B107F0E0
S31500028760E1FB2C4C2A48CDE90004684608F0A0FD3E
S3150002877008B107F0D7FB15F0BDFE284F2648CDE914
S315000287800007214869460294283809F0C1F908B160
S3150002879007F0C8FB2248CDE900071B486946029448
S315000287A0143809F0F2FA08B107F0BCFB18F0FEFE25
S315000287B0AC216846FEF705FF02208DF800008DF811
S315000287C0025006208DF8030016480590ADF8106099
S315000287D04FF49670229044F2506023908DF87C50AC
S315000287E01148299008486946483008F0CEF908B180
S315000287F007F098FB04480121483008F0C3F92BB072
S31500028800BDE8F04007F0E8BABC850020E12D030080
S31500028810F1350300A430002059820300A915040093
S31500028820A1FF0300583C0020D1D0030000F0F4B9A8
S3150002883070B5002009F0A0FD012009F09DFD02207F
S3150002884009F09AFD002009F07BFD012009F078FD70
S31500028850022009F075FD254A0121254807F016FD7B
S31500028860234800225221006807F04EFD00231A46D3
S315000288702049214809F0DDFF1F4801232C30002240
S315000288801C49044609F0D5FF1B4802235830002232
S315000288901849054609F0CDFF184A0321164809F082
S315000288A0E5FE164A0621144809F0E0FE144A0321A1
S315000288B0204609F0DBFE124A0621204609F0D6FEC2
S315000288C0104A0321284609F0D1FE0E4A06212846FF
S315000288D009F0CCFE084809F0CDFF204609F0CAFF90
S315000288E02846BDE8704009F0C5BF0000698C020049
S315000288F00C5104005D23030058780020D58E020037
S31500028900C98E0200BD8E02001E2102A2132001F0B2
S31500028910A5BC0000475058E69687E4BBB6E8A7A375
S31500028920E69E90E4B8AD2E2E2E00000010B509F09A
S315000289309BFD0B490B4A891AC90838B1012000EB85
S315000289400140BDE8104008A112F0F0BB032000EB85
S3150002895001400BA112F0EAFB0D490020087010BD80
S3150002896074580A00DC570A004257204750532044E5
S3150002897065496E6974204661696C65640000000091
S31500028980425720475053204465496E697465640016
S315000289902830002010B509F071FD0B490B4A891ADF
S315000289A0C908012430B104EB0140BDE8104008A11A
S315000289B012F0BCBB032000EB01400AA112F0B6FB89
S315000289C00C48047010BD000074580A00DC570A00F7
S315000289D042572047505320496E6974204661696C9C
S315000289E06564000042572047505320496E697465FA
S315000289F0640000002830002010B5064809F048FD42
S31500028A000549064AC861BDE810400121044807F03D
S31500028A103DBC00008DFF020028300020357903009E
S31500028A201051040010B5094B094A0A490A481AF0BE
S31500028A30F7F909481AF0BFFE002107481AF0D3FEDB
S31500028A40BDE81040044819F003BE00005D3B040077
S31500028A507938040024380A004883002010B512F041
S31500028A6049FA002804D112F081FD40BF20BF20BF81
S31500028A7010BD03F08FBA000010B50D48089A05998B
S31500028A8093B2A3F26C734361C2F30743120E5B1EE9
S31500028A90C0E90323CAB28260C1F30722C1F30741C8
S31500028AA0C0E90012FEF712FD0249086010BD00007F
S31500028AB0DC8300208C300020054810B500780128A0
S31500028AC005D103F09DFBBDE8104003F027BB10BDA6
S31500028AD0CC3E002003480078002801D103F0CCBB2D
S31500028AE070470000CC3E0020F0B5A3B0FFF7C1FFEF
S31500028AF0FFF79CFEFFF79CFEFFF77EFFFFF74AFF9C
S31500028B004FF4FA640E4E6701751C3846A847641E78
S31500028B10FAD1FFF70BFF88220A496846FEF72AFDBB
S31500028B20084810380FC8FFF7A7FFFFF77BFF00F0D2
S31500028B3021F802F067FB23B0BDE8F04000F026B84A
S31500028B4030510400F078002010B5FEF7ADFCFF218D
S31500028B5090FBF1F201FB12000549086000F010F8E3
S31500028B600FF024F8FFF77AFFBDE8104000F04EB888
S31500028B7094300020014802F03BBD0000088400202A
S31500028B8001481BF01BBA0000088400200EB511F044
S31500028B90CFF9020009D010481049401AC008012135
S31500028BA001EB00400EA112F0C5FA002011F0FAF90D
S31500028BB0134807C88DE807006846124914F0FCF905
S31500028BC008B107F0AFF9104814F0BAF908B107F086
S31500028BD0A9F914F0E3F90EBD74580A00DC570A002D
S31500028BE0436C6F636B20696E697469616C697A6143
S31500028BF074696F6E206661696C65643A202564004B
S31500028C0020510400214304009030002001480078DE
S31500028C1014F0B8B99030002010B517F0B3FB17F076
S31500028C20E5FB0A48007813F049F9082802D008B192
S31500028C3007F078F906480749BDE81040401AC0080F
S31500028C40032101EB004004A112F070BA943C00200B
S31500028C5074580A00DC570A00534141444320737496
S31500028C6061727465642E000009F01ABE70B515466D
S31500028C700446986A926A1E46904228D0287A68B1BB
S31500028C8007280AD154F8340BC16AC96AA167C16AB6
S31500028C90096B6167C06A406BE06770BDD4F8AC00CF
S31500028CA054F8A81B896AC86254F8A81C2068896A05
S31500028CB0086354F8A81CA068896A4863B6F93000AC
S31500028CC06060B3F93200617F401A206070BD087A95
S31500028CD0E8B10128FAD1B6F93000C4F8AC00D4F8EC
S31500028CE0D020D4F8E41092FBF1F24A43511A8142A1
S31500028CF001DB0028EADAA86B996B401A012801D039
S31500028D00401CE3D1B5F93000C4F8AC0070BD94F84C
S31500028D10F2000128286823D001F0DEFAC4F89C008C
S31500028D20B6F9320094F8C520801AC4F8A800D4F81F
S31500028D30D430D4F8E01093FBF1F34B43591A814235
S31500028D4001DB0028E2DAA86BB16B401A012801D0D8
S31500028D50401CDBD1B5F93200801AC4F8A80070BDF8
S31500028D6001F0C0FA001DD9E72DE9F0470C7A4FF061
S31500028D70000A4FF0010924B1012C47D14C7AECB319
S31500028D8082E04C7A8CBB9F6B966BA7EB060CBCF110
S31500028D90000F12DDD0F8D450D0F8E0400E6A95FBF1
S31500028DA0F4F7F71B674504D295FBF4F5751B6D1CAA
S31500028DB06C43D0F8EC502C1B13E0D0F8D4C0D0F89A
S31500028DC0E0400D6A9CFBF4F8A5EB0808F61BB045DB
S31500028DD004D29CFBF4F6AD1B6D1C6C43D0F8EC5030
S31500028DE02C44C0F8EC4081F809909C6A916A8C4246
S31500028DF00CD0157A65B1072D08D100E013E0A16AFF
S31500028E00C0F8EC10996A496AC0F8E810BDE8F08724
S31500028E1050F8E83F4B62926A4168916210F8231C4F
S31500028E20C0E900A1F2E79F6B966BBD1B002D13DD17
S31500028E30D0F8D070D0F8E4400E6A97FBF4FCA6EBAB
S31500028E400C0CAC4504D297FBF4F5751B6D1C6C43F8
S31500028E50D0F8E8502C1B13E0D0F8D0C0D0F8E4408C
S31500028E600D6A9CFBF4F8A5EB0808F61BB04504D284
S31500028E709CFBF4F6AD1B6D1C6C43D0F8E8502C44F9
S31500028E80C0F8E84081F809909C6A916A8C42BDD08C
S31500028E90157A45B1072DB9D1616A40F8E81F996A7A
S31500028EA0896A4160B2E750F8E83F4B62926A4168CC
S31500028EB09162C0F800A010F8231CF2E701490220D3
S31500028EC0087070470030002001490320087070477F
S31500028ED00030002001490120087070470030002050
S31500028EE0084910B5097859B1006808490268064868
S31500028EF0401AC008052101EB004005A112F01AF93B
S31500028F00012010BD3452040074580A00DC570A00CE
S31500028F105B4D69616F5549204C4F475D2D3E494E69
S31500028F20464F3A0A43616E63656C2025730A000058
S31500028F30014800F003B80000D97F0020FEB50024E6
S31500028F401549164BCDE9004122460121029402F051
S31500028F5071F806461248134BCDE90040A0F1CC0544
S31500028F60114A3146686801F0ABF805F1D800CDE93F
S31500028F7000400D4A0D4B24323146A86801F0A0F894
S31500028F8005F1E400CDE90040074A094B4832314673
S31500028F90E86801F095F8FEBD19B602008C9B002028
S31500028FA06C3E0020E18E02003CA600206D650300A7
S31500028FB0996503002DE9FF4100230122FC49FDA02A
S31500028FC0FFF770FBFA4DFE4800240095CDE90140FB
S31500028FD0FC4F039405F5C4730221F6A03A68FFF725
S31500028FE04BFA05F138060095CDE90164039405F5BF
S31500028FF002730021F4A07A68FFF73EFA2B4600229C
S315000290003146F4A0FFF74EFB0096CDE9015405F573
S31500029010E47300220721EFA00394FFF72DFAF0482C
S315000290200096CDE9014005F5A16300220221EDA0DB
S315000290300394FFF721FAEE480096CDE9014005F5C3
S31500029040A96300220321EBA00394FFF715FAEC486B
S315000290500096CDE9014005F5B16300220121E9A0A0
S315000290600394FFF709FACDE90064029405F5B963A2
S3150002907000220321E6A00394FFF7FEF9CDE900647E
S31500029080029405F5C16300220321E5A00394FFF7CC
S31500029090F3F9CDE90064029405F5C96300220321C0
S315000290A0E3A00394FFF7E8F905F170080096CDE90D
S315000290B00184002205F562731146E1A00394FFF7CD
S315000290C0DBF9334600224146E0A0FFF7EBFACDF882
S315000290D00080CDE9016405F5816300220721DBA04A
S315000290E00394FFF7C9F9CDE90084029405F5896373
S315000290F000220321D8A00394FFF7BEF9CDE900842C
S31500029100029405F5916300220321D5A00394FFF78B
S31500029110B3F9CDE90084029405F59963002203218F
S31500029120D1A00394FFF7A8F970360095CDE9016442
S31500029130039405F522730021CDA03A6AFFF79CF944
S315000291402B4600223146CDA0FFF7ACFA0096CDE9B8
S31500029150015405F5D16300220721CCA00394FFF741
S315000291608BF9CDE90064029405F5E163002203213F
S31500029170C9A00394FFF780F9CDE90064029405F5CE
S31500029180D96300220321C7A00394FFF775F9383685
S315000291900095CDE90164039405F532730021C4A05C
S315000291A07A6AFFF769F92B4600223146C4A0FFF717
S315000291B079FA0096CDE9015405F5E9630022072103
S315000291C0BFA00394FFF758F9CDE90064029405F5B0
S315000291D0F16300220321BEA00394FFF74DF9CDE906
S315000291E00064029405F6081300220321BEA003942C
S315000291F0FFF742F9CDE90064029405F6480300221E
S315000292000321BDA00394FFF737F9CDE90064029468
S3150002921005F6880300220321BAA00394FFF72CF96E
S31500029220CDE90064029405F6C80300220321B9A021
S315000292300394FFF721F9BB480096CDE9014005F5F5
S31500029240F96300220221B8A00394FFF715F905F588
S315000292508C780096CDE90184002205F608031146B2
S31500029260B4A00394FFF708F9334600224146B5A09D
S31500029270FFF718FACDF80080CDE9016405F6481328
S3150002928000220721AFA00394FFF7F6F8B148B249CE
S31500029290CDE90210CDE9005405F512730121AFA004
S315000292A0FA69FFF7E9F870360095CDE9016403948F
S315000292B005F688130021ACA0BA6AFFF7DDF82B4643
S315000292C000223146ACA0FFF7EDF90096CDE9015434
S315000292D005F6C81300220721A7A00394FFF7CCF8CE
S315000292E00096CDE9015405F6883300220321A6A093
S315000292F00394FFF7C1F80096CDE9015405F6082359
S3150002930000220321A4A00394FFF7B6F80096CDE944
S31500029310015405F6482300220321A3A00394FFF774
S31500029320ABF80096CDE9015405F688230022032105
S31500029330A2A00394FFF7A0F80096CDE9015405F622
S31500029340C82300220321A0A00394FFF795F80096F4
S31500029350CDE9015405F60833002203219DA00394AA
S31500029360FFF78AF80096CDE9015405F64833002244
S3150002937003219BA00394FFF77FF8CDE900540294E2
S31500029380039405F54273042198A0FA68FFF774F86E
S3150002939099480095CDE90140039405F552730221DF
S315000293A096A07A69FFF768F8CDE9005402942BE19A
S315000293B0749A00205BE4B8BBE9A1B55D0000000029
S315000293C0DDA30200743D0020202BE7B3BBE7BB9F61
S315000293D0000000005BE7B3BBE7BB9F5D0000000037
S315000293E08D220400202DE5A48DE4BD8D0000000031
S315000293F07DB90200202DE5AFB9E6AF94E5BAA60025
S3150002940041C50200202DE681AFE5B18F00000000C4
S31500029410202DE88F9CE58D95E9A29CE889B2000093
S31500029420202DE58589E6A087E58AA8E794BB00009A
S31500029430202DE69687E69CACE6B58BE8AF95000054
S31500029440202D494D55205461736B00005B494D55E3
S31500029450205461736B5D0000202D506974636800AF
S31500029460202D526F6C6C0000202D59617700000090
S31500029470202D475053E68EA7E588B6005B4750532A
S3150002948020E68EA7E588B65D000000005B475053D4
S31500029490E68EA7E588B65D00202D475053E78AB6CB
S315000294A0E6808100202DE58DABE6989FE695B0001B
S315000294B0202DE58685E5AD98E8AEBEE5A4870000D9
S315000294C05BE58685E5AD98E8AEBEE5A4875D00005E
S315000294D0202DE58685E5AD98E8AEBEE5A487E78A48
S315000294E0B6E6808100000000202DE8AEBEE5A48726
S315000294F0E7B1BBE59E8B0000202DE680BBE5A4A765
S31500029500E5B08F00202DE5B7B2E794A8E7A9BAE93E
S3150002951097B40000202DE58FAFE794A8E7A9BAE932
S3150002952097B40000210E0400202DE6A0BCE5BC8FF6
S31500029530E58C9600202D475058E69687E4BBB6E5A3
S31500029540A4B900005B475058E69687E4BBB6E5A48B
S31500029550B95D0000E0780020CD380300202DE8A197
S31500029560A8E79B9800000000202DE9AA91E8A18CAB
S31500029570E695B0E68DAE00005BE9AA91E8A18CE61D
S3150002958095B0E68DAE5D0000202DE695B0E68DAE77
S31500029590E8AEB0E5BD950000202DE680BBE585ACC2
S315000295A0E9878CE695B00000202DE69CACE6ACA1DE
S315000295B0E585ACE9878CE695B0000000202DE980B0
S315000295C09FE5BAA600000000202DE6B5B7E68B940B
S315000295D000000000202DE7BAACE5BAA600000000A4
S315000295E0202DE7BB8FE5BAA600000000202D4769B3
S315000295F074687562000000006DC50200202DE789BF
S3150002960088E69CAC00000000039405F572730621FF
S3150002961002A0BA69FEF730FFBDE8FF81202DE6B34E
S31500029620A2E5BDA2000000004A4848A141604A489E
S3150002963046A141604B4849A141604D494AA0486054
S315000296404C4849A141604E484BA1416050494DA04A
S31500029650486052484FA14160544851A14160574960
S3150002966053A04860594856A141605C4858A14160E0
S315000296705E485BA141605E4859A141605F485DA1B9
S31500029680416061495EA04860624960A048606548E1
S3150002969061A14160674864A141606A4866A1416070
S315000296A06C4969A048606F486BA1416071496EA020
S315000296B04860744970A0486073486FA1416077485A
S315000296C072A14160794876A141607C4878A14160E7
S315000296D07E487BA1416081487DA14160834880A18B
S315000296E04160864882A14160884985A048608848D1
S315000296F083A14160894987A048608C4988A0486057
S315000297008E498BA048608E4889A1416090488DA100
S31500029710416093488FA14160964992A0486098485B
S3150002972095A14160994897A141609B4898A14160E3
S315000297309C489AA141609F489BA14160A0489EA176
S315000297404160A2499FA04860704700005BD6F7D2ED
S31500029750B35D0000749A0020FC9B0020202BCFB53D
S31500029760CDB300007C9C00205BCFB5CDB35D00007D
S31500029770AC9A00203C9C0020202DB8B4CEBB000041
S315000297807C9F0020202DB6D4B1C8B6C800000000C8
S31500029790BC9F0020202DCFA2C6C10000FC9F002046
S315000297A0202DB2CBB5A5D1D5C9AB00003CA0002077
S315000297B0202DB9E2B1EAB6AFBBAD00007CA0002015
S315000297C0202DCEC4B1BEB2E2CAD40000BCA0002095
S315000297D0202D494D55205461736B0000FC9D0020DD
S315000297E05B494D55205461736B5D0000E49A00207D
S315000297F07C9E0020202D506974636800BC9E002068
S31500029800202D526F6C6C0000FC9E0020202D5961A9
S31500029810770000003C9F0020202D475053BFD8D62A
S31500029820C6000000FC9C00205B47505320BFD8D6E0
S31500029830C65D00001C9B00205B475053BFD8D6C6AE
S315000298405D000000FCA00020202D475053BFAAB99E
S31500029850D80000007CA10020202DCEC0D0C7CAFDB2
S31500029860000000003CA10020202DC4DAB4E6C9E8BD
S31500029870B1B800003C9D00205BC4DAB4E6C9E8B189
S31500029880B85D0000549B0020BCA10020202DC4DA44
S31500029890B4E6C9E8B1B8D7B4CCAC0000FCA100204C
S315000298A0202DC9E8B1B8C0E0D0CD00007CA30020CD
S315000298B0202DD7DCB4F3D0A100000000BCA200200A
S315000298C0202DD2D1D3C3BFD5BCE40000FCA2002018
S315000298D0202DBFC9D3C3BFD5BCE400003CA30020E2
S315000298E0202DB8F1CABDBBAF000000003CA200208B
S315000298F0202D475058CEC4BCFEBCD0007CA200200E
S315000299005B475058CEC4BCFEBCD05D008C9B002089
S31500029910BCA30020202DB1EDC5CC0000BC9C0020CC
S31500029920202DC6EFD0D0CAFDBEDD0000FCA300206C
S315000299305BC6EFD0D0CAFDBEDD5D0000C49B002031
S315000299403CA40020202DCAFDBEDDBCC7C2BC00005F
S31500029950FCA50020202DD7DCB9ABC0EFCAFD000064
S315000299607CA40020202DB1BEB4CEB9ABC0EFCAFD97
S3150002997000000000BCA40020202DCBD9B6C80000F0
S31500029980FCA40020202DBAA3B0CE00003CA50020E6
S31500029990202DCEB3B6C800007CA50020202DBEAD7A
S315000299A0B6C80000BCA50020202D47697468756200
S315000299B0000000007C9D0020202DB0E6B1BE000014
S315000299C0BC9D0020202DB2A8D0CE00003C9E0020D7
S315000299D0FEB5DB490646D7A00860DA484860DA4891
S315000299E0886001250D7500244C758D75FF20C1E92F
S315000299F00604D448B1EE040A001D81ED080A01608E
S31500029A000146D24800F054FBCD48D1A12430016072
S31500029A10D14941604475FF21C0E90614C9490C3198
S31500029A20086000F2CC6000F043FBC549CBA0483188
S31500029A30086006F1F0004860022048750846C149F0
S31500029A4085751431086000F6A80000F031FBBC48A9
S31500029A50C5A16C300160C7494160C749C160C749A9
S31500029A60016102214175B74985751C31086000F60E
S31500029A70C41000F01DFBB248C1A190303C36C0E9CB
S31500029A800016457585750A219FEDC00AC0E90614C0
S31500029A90AC4980ED080A2431086000F50A6000F03E
S31500029AA007FBA749BAA0B43108600846C1F804D03A
S31500029AB0457584754FF4B47088614042C8610846A2
S31500029AC0A0492C31086000F2BC6000F0F1FA9C4912
S31500029AD0B1A0D831086001A848600846457584756A
S31500029AE04FF4B47088614042C861084695493431E2
S31500029AF0086000F5DB6000F0DBFA9149A8A0FC31B2
S31500029B00086002A848600846457584754FF4B4702B
S31500029B1088614042C86108468A493C31086000F2C1
S31500029B20F46000F0C5FAA2499EA00860A148486008
S31500029B300846447584756420886108468149C46173
S31500029B404431086000F50D6000F0B2FA98499A486F
S31500029B50243148609948C8609948086102204875CE
S31500029B600846784984754C31086000F66C1000F09E
S31500029B709FFA8F4993A04831086097484860084683
S31500029B8045759648886108466E49C46154318475A4
S31500029B90086000F6C83000F08BFA854890A16C3058
S31500029BA00160934941608D49C0E9061465494575CE
S31500029BB05C318475086000F6E43000F079FA7C487E
S31500029BC08CA1903001608D49416040F2E731C0E9D5
S31500029BD006145C49457564318475086000F5406079
S31500029BE000F066FA724886A1B43001608749416086
S31500029BF042F20F71C0E90614524945756C318475FB
S31500029C00086000F61C4000F053FA694880A1D8307B
S31500029C100160824941605A21C0E9061449494575E5
S31500029C2074318475086000F6384000F041FA6048E5
S31500029C307BA1FC3001607D494160B421C0E9061474
S31500029C40404945757C318475086000F6544000F041
S31500029C502FFA7A4976A008603A48E0304860032035
S31500029C6048750846374985758431086000F5E6600F
S31500029C7000F01EFA714872A12430016074494160F5
S31500029C80447584757349C0E906142E498C310860FF
S31500029C9000F60C1000F00CFA68486FA1483001601B
S31500029CA06B4908314160447584756A49C0E90614F6
S31500029CB024499431086000F6281000F0F9F95F484B
S31500029CC06AA16C3001606249091D41604475847560
S31500029CD06049C0E906141B499C31086000F644102D
S31500029CE000F0E6F9554866A19030016058490969C5
S31500029CF041600321417513498475A431086000F55A
S31500029D00166000F0D5F94D4861A1B43001600D49E5
S31500029D10103941600221417585756149C160614909
S31500029D2001610849AC31086000F6BC3000F0C0F9A8
S31500029D30FEBD0000436F6E74726173740000000012
S31500029D404C970020B03D002031C50200BC9F002088
S31500029D505761766500000000943000204D656E75EF
S31500029D60436F6C6F7200000047505320537769743B
S31500029D7063680000283000202D89020095890200C0
S31500029D80437572736F72416E69000000CDCCCC3D93
S31500029D905069746368000000526F6C6C000000002A
S31500029DA059617700536174656C6C69746573000060
S31500029DB06C9800202C300020CC3E0020B98A02008C
S31500029DC0D58A0200546F74616C204B696C6F6D65A5
S31500029DD07465727300000000483000209F860100FF
S31500029DE054686973204B696C6F6D65746572730094
S31500029DF04C3000205370656564000000303000204E
S31500029E00416C746974756465000000003830002086
S31500029E104C6174697475646500000000403000206E
S31500029E204C6F6E6769747564650000003C300020F3
S31500029E304950204164647265737300008C99002056
S31500029E4053444361726420436170616369747900AB
S31500029E50D03E00207F969800534443617264205599
S31500029E607365642053706163650000005344436167
S31500029E707264204672656520537061636500000056
S31500029E805344436172642050726F647563740000B8
S31500029E905265636F61726420537769746368000068
S31500029EA0DDB3020019B20200D0F8C81007484160BB
S31500029EB007494A7882600978C16006A101600C49A7
S31500029EC0486000F5467000F0F3B80000649A00207E
S31500029ED0203D00206769746875622E636F6D2F4A94
S31500029EE046656E672D5A2F4D69616F554900000010
S31500029EF0643E002038B504004548464B434AA0EB71
S31500029F0003004FEAD0004FF0050303EB00406DD08B
S31500029F10002972D04048DFED410A4460C4ED030ACD
S31500029F209FED3F0ADFED3F1A84ED040A9FED3E1ACC
S31500029F30C4ED051A84ED0F1A9FED3C1A9FED3C2ADB
S31500029F4084ED101A84ED111AC4ED1B0A84ED1C0A65
S31500029F5084ED1D2AC4ED150A84ED160A84ED171A3E
S31500029F60C4ED210A84ED220ADFED320AC4ED231A7A
S31500029F70C4ED090A84ED0A0A84ED0B0A8020C4F8AE
S31500029F80D0004020C4F8D4001E20C4F8D8002A4DC0
S31500029F900122C4F8DC0084F8F22029CD04F1C40CB5
S31500029FA08CE829001020C4F8E0002820C4F8E40058
S31500029FB00020C4F8E80094F8C5302160C4F8EC30FB
S31500029FC0616084F8C20084F8C30084F8F00084F863
S31500029FD0F120FFF729FB2046FEF7ECFF2046FFF7AC
S31500029FE0F7FC2046BDE83840FFF75EBF009240F21C
S31500029FF0D35312A217A105E0FFE700924FF4BB6309
S3150002A0000EA21FA111F0A5F838BD0000D25204001D
S3150002A01074580A00DC570A00183D00203333B33E59
S3150002A020000000008FC2F53CCDCCCC3ECDCCCC3D61
S3150002A0300AD7233C9A99993E683D00202E5C6C69AA
S3150002A040625C4D69616F55495C636F72655C7569E7
S3150002A0502E6300005B4D69616F5549204C4F475D89
S3150002A0602D3E464154414C3A0A4025733A25643AFC
S3150002A07025733A7569206973204E554C4C0A0A00BD
S3150002A0805B4D69616F5549204C4F475D2D3E4641F8
S3150002A09054414C3A0A4025733A25643A25733A6983
S3150002A0A074656D206973204E554C4C0A0A000000F7
S3150002A0B0002804D0002902D0C1600AF0E3BC704730
S3150002A0C030B40029DDE902540FD0002A0DD0002C4D
S3150002A0D00BD000B906A0906003B1536005B1D560FC
S3150002A0E0146130BC1046FEF789BA30BC70470000D6
S3150002A0F06E6F206E616D65002DE9F04104462DED0F
S3150002A100028B84B090F8C2000C9E1D461746884604
S3150002A11004283BD1B4F8B80000EE905A00EE100ABB
S3150002A1209FED268AB8EEE01AB8EE400AF2EE001A61
S3150002A130F0EE480AB4340AF0BCFABCEEC00A01EEEC
S3150002A140106AF2EE001A10EE100AB8EEC11A20805A
S3150002A150A088F0EE480A00EE100AB8EE400A0AF0AD
S3150002A160A8FABCEEC00ABAB21FFA88F110EE100ABB
S3150002A17080B260808DE8610034F8B439204600F080
S3150002A180EDF8B4F8B800401CA4F8B800B4F8B4006E
S3150002A190A8420ED1B4F8B600B0420AD1002024F883
S3150002A1A0B80F0320A072012004B0BDEC028BBDE8FB
S3150002A1B0F08100F09DF80020F6E7000000000000A4
S3150002A1C0014818F045BA00004883002008B50093FC
S3150002A1D013460A460146024818F044FA08BD000032
S3150002A1E04883002013460A460146014818F02EBD50
S3150002A1F04883002008B5009313460A4601460248E2
S3150002A20018F092FA08BD00004883002008B50093B2
S3150002A21013460A460146024818F0B4FB08BD000080
S3150002A220488300201CB5049CCDE9003413460A4637
S3150002A2300146024818F016FC1CBD000048830020A7
S3150002A2401CB5049CCDE9003413460A460146024871
S3150002A25018F07BFC1CBD00004883002070B5144634
S3150002A2600D46064601F07EF990F8F20022460028D5
S3150002A2702946304603D0BDE8704000F005B8BDE877
S3150002A2807040FFF7AFBF000013460A460146014879
S3150002A29018F0E4BC488300201CB5049CCDE90034C8
S3150002A2A013460A460146024818F0E6FC1CBD0000A9
S3150002A2B0488300200148406B704700004883002015
S3150002A2C0014890F83800704748830020014800682A
S3150002A2D0007C7047488300200146014818F012BDF1
S3150002A2E0488300200146014818F012BD4883002029
S3150002A2F0014818F02BBD00004883002008B50093E2
S3150002A30013460A460146024818F029FD08BD000018
S3150002A310488300200146014819F05DBA48830020AF
S3150002A3200178014818F029BD4883002001460148FA
S3150002A33018F02BBD488300200146014818F035BDB0
S3150002A34048830020014818F039BD000048830020E8
S3150002A3500146014819F047BA488300202DE9F8431F
S3150002A3600D4608A990F8F00091E840038DF8000028
S3150002A3701F4614466846FFF7D3FF1FFA88F2334694
S3150002A38021462846FFF722FF9DF8000080F00100D3
S3150002A3908DF800006846FFF7C3FFE81982B223462C
S3150002A3A019462846FFF732FFA01983B22A462146EC
S3150002A3B01046FFF72BFF4C44A01B454483B2AAB2BA
S3150002A3C0A1B2A8B2FFF722FFE81B82B2A3B2A1B2E2
S3150002A3D0A8B2FFF71BFFBDE8F88300002DE9F043A2
S3150002A3E005462DED028B83B00120802400268DF8D0
S3150002A3F004009FEDB18A05F15409B04FDFF8C0821F
S3150002A400DFEDB08A0EF01EF903287DD0FFF7D8FEE5
S3150002A41001A8FFF785FF082E22D2DFE806F0042204
S3150002A4203F618EBEF675B5F8B800F3EE041A00EE7B
S3150002A430100AB3EE0E1AF0EE480AB8EE400AB43528
S3150002A4400AF037F9BCEEC00A10EE100A25F8040B22
S3150002A4502888401C80B225F8B809142800D10126A4
S3150002A4600EE100EE104A0020A5F8B800F8EEC00A88
S3150002A4704846B3EE0A0A02F0D3FABDEEC00A0E232C
S3150002A480392210EE100A009704B2A1B22220FFF779
S3150002A49003FF1A2CE4D102260024F1E000EE104A52
S3150002A4A04846F8EEC00AB2EE0C0A02F0B9FABDEE60
S3150002A4B0C00A0E23392210EE100A1A21009704B29E
S3150002A4C02220FFF7E9FED8F80400FFF72FFFA0B21B
S3150002A4D07DA23A21FFF7C2FE0C2CC1D1032691E0E0
S3150002A4E000EE104A4846F8EEC00AB0EE480A02F0FC
S3150002A4F097FABDEEC00A0E23392210EE100A1A216F
S3150002A500009704B2222000E0D0E0FFF7C5FED8F89B
S3150002A5100400FFF70BFF6CA23A210E20FFF79EFE06
S3150002A520D5F8C800FFF702FFA0B26EA21021FFF70E
S3150002A53095FE002C94D1042664E000EE104A4846AB
S3150002A540F8EEC00AB0EE680A02F06AFABDEEC00A78
S3150002A5500E23392210EE100A1A21009704B2222085
S3150002A560FFF79AFED8F80400FFF7E0FE56A23A215A
S3150002A5700E20FFF773FED5F8C800FFF7D7FE59A2E3
S3150002A58010210020FFF76AFEA0B259A21021FFF7A0
S3150002A59065FE362C74D1052634E000EE104A484694
S3150002A5A0F8EEC00AB0EE680A02F03AFABDEEC00A48
S3150002A5B00E23392210EE100A1A21009704B2222025
S3150002A5C0FFF76AFED8F80400FFF7B0FE3EA23A2172
S3150002A5D00E20FFF743FED5F8C800FFF7A7FE41A2FB
S3150002A5E010210020FFF73AFE41A210213620FFF784
S3150002A5F035FEA01D80B23FA21021FFF72FFE362C9A
S3150002A6003ED1062680243BE0FFE700EE104A48468C
S3150002A610F8EEC00AB0EE680A02F002FABDEEC00A0F
S3150002A6200E23392210EE100A1A21009704B22220B4
S3150002A630FFF732FED8F80400FFF778FE22A23A218D
S3150002A6400E20FFF70BFED5F8C800FFF76FFE25A216
S3150002A65010210020FFF702FE25A210213620FFF767
S3150002A660FDFD24A210213C20FFF7F8FD04F10C00A9
S3150002A67080B221A21021FFF7F1FD362C00D1072668
S3150002A680B5F8B4002D23C0F1400082B2194640202D
S3150002A690FFF7BCFDB5F8B4002D23403082B219464F
S3150002A6A04020FFF7B3FDFFF723FEABE603B0BDEC98
S3150002A6B0028BBDE8F0830000000000003B86070025
S3150002A6C02C3D0020000058426769746875622E634B
S3150002A6D06F6D2F4A46656E672D5A2F4D69616F550C
S3150002A6E04900000056657273696F6E3A00000000F9
S3150002A6F0310000002E000000330000002DE9FC4767
S3150002A700984613464D690F464FF0020904468DF8E6
S3150002A71004904246194600F08FF82068816AD8F8FC
S3150002A7202800814209D00020024603E0AA866D690C
S3150002A730401C80B2396A8142F8DA002645E000BF41
S3150002A740B5F9340000EE100AB5F93000F8EEC00A89
S3150002A75000EE100A04F16C00B8EEC00A02F060F9CD
S3150002A760BDEEC00A10EE100A00B2A886D4F8D810C0
S3150002A7704A42904226DBD4F8D0201144814221DBA2
S3150002A78094F8F000D83480F001008DF8040001A896
S3150002A790FFF7C6FD286A009020880C2183B282B298
S3150002A7A0A88EFFF779FD8DF8049001A8FFF7B8FD92
S3150002A7B00420009034F8D8090C2183B282B2A88E04
S3150002A7C0FFF730FD6D69761CB6B2386AB042B7DA69
S3150002A7D094F8F00080F001008DF8040001A8FFF75C
S3150002A7E09FFDB4F8D400D8F80020801E81B211482B
S3150002A7F0008880B2FFF732FD94ED290A04F13C008D
S3150002A800F8EEC00A94ED2B0AB8EEC00A02F008F977
S3150002A810BDEEC00A022310EE100A44F8A40F80B25D
S3150002A820A18E8AB2218E113989B2FFF7CFFCBDE81B
S3150002A830FC870000183D002038B5044690ED340A26
S3150002A840906AF8EEC00A90ED080AB8EEC00A80EEE9
S3150002A850801A92ED0E0AB8EE400A21EE000ABCEE0C
S3150002A860C00A10EE100A80B2A4F8BC00B4F8BA10FE
S3150002A87000EE101AF8EE400A00EE100A04F10C007F
S3150002A880B8EE400A02F0CCF8BCEEC00A10EE100A8E
S3150002A890A4F8BA00B4F8BE0000EE100A04F12400CF
S3150002A8A0F8EE400A94ED340AB8EEC00A02F0B8F89F
S3150002A8B0BCEEC00A0223194610EE100A82B2A4F8B0
S3150002A8C0BE200020FFF7A2FCB4F8BA20032A06D95C
S3150002A8D002200021009006230846FFF7A3FCB4F8E5
S3150002A8E0BA00B4F8BC10884207D1B4F8BE00D4F856
S3150002A8F0D010884201D1012038BD002038BD2DE993
S3150002A900F84F05460A9E5FEA030A8B46184625D08B
S3150002A910C5F30724002C21D000F0EAFDE9B2484332
S3150002A92000F1040970883788A0F1020802208DF828
S3150002A9300000251D5846BF1CFFF7F8FC6846FFF7C6
S3150002A940EFFCA0441FFA88F1B8B25246FFF786FC24
S3150002A950A6F80490F5803781A6F80A80BDE8F88F3C
S3150002A9602DE9F04104462DED028B82B000200A9EAD
S3150002A970F0EE400A1D46174688468DF800009FED08
S3150002A980648A2068991FB1EE081AC0680068427D81
S3150002A99012B1012A7ED12EE04368D0F818C01A6897
S3150002A9A0624577DCC069824274DB00EE102AB8EE9B
S3150002A9B0C00A30EE200ABDEEC00A10EE100A186078
S3150002A9C02268D26813685A689B69984200DD136050
S3150002A9D02068C06802685068D2690368934200DA48
S3150002A9E002602068C06802685068D3690068C01AAD
S3150002A9F04FE0404251E0D0ED061A4268F8EEE11A05
S3150002AA0092ED000AB4EEE10AF1EE10FA54D8D0ED56
S3150002AA10071AF8EEE11AB4EEE10AF1EE10FA4BDB90
S3150002AA2070EE200AC2ED000A2068C068026892ED44
S3150002AA30060A5068F8EEC01AF4EEE10AF1EE10FAD0
S3150002AA4003DDB8EEC00A80ED000A2068C06802681D
S3150002AA5092ED070A5068F8EEC01AD0ED000AF4EE3D
S3150002AA60E10AF1EE10FA03D2B8EEC00A80ED000A4E
S3150002AA702068C0680268D369506800EE103AD0EDCB
S3150002AA80000AB8EEC00A30EEC00ABDEEC00A10EEE9
S3150002AA90100A00E010E00028ABDB484300EE100A83
S3150002AAA09069F8EEC00AC01A00EE100AF8EEC01A53
S3150002AAB080EEA10A30EE018A6846FFF731FC334682
S3150002AAC02A4639464046FFF781FB01208DF80000F1
S3150002AAD06846FFF725FCB4F8C00000EE100A04F140
S3150002AAE08400F8EE400AB0EE480A01F099FFBCEE87
S3150002AAF0C00A3346394610EE100A82B2A4F8C020C4
S3150002AB004046FFF763FB02B0BDEC028BBDE8F08165
S3150002AB10000000002DE9F041B4EEC10A2DED028BD2
S3150002AB201D469FED1B8A0E46F1EE10FA07461DD80A
S3150002AB30B4EEE00AF1EE10FA18DB70EE601A901F1E
S3150002AB4000EE100A71EE600AB8EEC00A21EE800A23
S3150002AB5080EE201ABDEEC10A10EE104A002C00DA71
S3150002AB606442A41D00EE104AB8EEC08A3846FFF7CA
S3150002AB7041FBBCEEC80ABDEC028B2B4610EE100A56
S3150002AB80314682B23846BDE8F041FFF71FBB0000EE
S3150002AB90000000002DE9F041044600680F464D69A9
S3150002ABA0806A996A8AB0884209D00020014603E089
S3150002ABB0E9866D69401C80B23A6A8242F8DA00265A
S3150002ABC04FF00208CCE000BFB5F9360000EE100ADD
S3150002ABD0B5F93200F8EEC00A00EE100A04F154008C
S3150002ABE0B8EEC00A01F01CFFBDEEC00A10EE100A54
S3150002ABF000B2E88694F8C5104A4290427EDBD4F849
S3150002AC00D4201144814279DB287A032877D1E86877
S3150002AC10002874D0182102A8FCF7D3FCB4F8D4009B
S3150002AC2083B2B4F8D000A0F10C018AB2243880B203
S3150002AC300021FFF763FBE8680168487D30B101280F
S3150002AC4019D0022843D003286FD169E04A688B697C
S3150002AC501068984200DC03461360E86800684168A1
S3150002AC60C069834200DA03460B605CA2182102A87F
S3150002AC7003F0F8F959E0D1ED060A4868B8EEE01A91
S3150002AC8090ED000AB4EEC10AF1EE10FA01DDB8EE5B
S3150002AC90E00A80ED000AE8680168D1ED070A486813
S3150002ACA0B8EEE01AB4EEC10AF1EE10FA01D2B8EE2D
S3150002ACB0E00A80ED000A10EE100AFCF7E9FECDE983
S3150002ACC0000147A2182102A803F0CCF92DE0CDF825
S3150002ACD00080E88E94F8C520801A81B2B4F8D000BC
S3150002ACE01346243880B2FFF7ABFAE868006840687A
S3150002ACF00078012819D1CDF8008001E02DE01CE092
S3150002AD00E98E94F8C500091A001F83B282B2B4F81C
S3150002AD10D000891C223889B280B2FFF783FA04E098
S3150002AD204968182202A8FCF775FCB4F8D000E98E2F
S3150002AD30243880B202AAFFF791FAB4F8D4000021AF
S3150002AD4083B2B4F8D0002A3882B20846FFF7D6FAA0
S3150002AD50E98E288E2A68FFF781FA6D69761CB6B2EB
S3150002AD60386AB042BFF630AF8DF8208008A8FFF7E8
S3150002AD70D7FA94ED280A04F13C000546F8EEC00A1B
S3150002AD8094ED2A0AB8EEC00A01F04AFEBDEEC00AE8
S3150002AD90284684ED280A94ED270AF8EEC00A94EDB7
S3150002ADA02C0A9C34B8EEC00A01F03AFEBDEEC00A87
S3150002ADB0042110EE100A2060009182B2A08894F855
S3150002ADC02930401C81B2B4F84C00401C80B2FFF717
S3150002ADD029FAFFF7B7FA0AB0BDE8F0812564000048
S3150002ADE0252E34660000000038B5044690ED350A7B
S3150002ADF0906AB8EEC01A90ED080AB8EEC00AC1EE23
S3150002AE00000A92ED0E0AB8EE400A20EE800ABCEE67
S3150002AE10C00A10EE100A80B2A4F8BC00B4F8BA1048
S3150002AE2000EE101AF8EE400A00EE100A04F10C00C9
S3150002AE30B8EE400A01F0F4FDBCEEC00A10EE100AAC
S3150002AE40A4F8BA00B4F8BE0000EE100A04F1240019
S3150002AE50F8EE400A94ED350AB8EEC00A01F0E0FDBC
S3150002AE60BCEEC00A002110EE100A83B2A4F8BE306E
S3150002AE70B4F8D000BA34C01F82B280B2FFF7C6F966
S3150002AE8034F8BA39032B09D902200090B4F8D0005D
S3150002AE9006220A3880B20021FFF7C4F9B4F8BA00D4
S3150002AEA0B4F8BC10884207D1B4F8BE00D4F8D41066
S3150002AEB0884201D1012038BD002038BDF8B50446CC
S3150002AEC01E4617460D46D0F8C800FFF72FFAFFF7C1
S3150002AED077F994F8C20002282DD1B06AB96A88427D
S3150002AEE002D00120687226E0287A002110B10128DA
S3150002AEF021D112E0D4F8D420D4F8E00094F8C53079
S3150002AF0092FBF0F24243121AB6F93200C01A82429A
S3150002AF1001DB00280FD569720DE0D4F8D020D4F8F1
S3150002AF20E40092FBF0F24243121AB6F93000824272
S3150002AF30F1DB0028EFDB94F8F2000128306809D033
S3150002AF40FFF7CAF9D4F8D0102A39814205D2C4F8DB
S3150002AF50B01004E0FFF7C6F9F4E7C4F8B00094F8BD
S3150002AF60F0008DF800006846C234FFF7D9F9608A0E
S3150002AF70002183B2E08982B20846FFF727F99DF8DD
S3150002AF80000080F001008DF800006846FFF7C8F95E
S3150002AF9014F8C2093A463346022828D129462046E1
S3150002AFA0FDF7E2FE0020696914E02A7A12B1012A4D
S3150002AFB00DD107E0D4F8E030D4F8EC2000FB0322F0
S3150002AFC04A8604E0D4E9393200FB03220A8649693B
S3150002AFD0401C80B22A6A8242E7DA94F8C20002284A
S3150002AFE005D133463A4629462046FDF73FFE287AE2
S3150002AFF010B101280CD016E0324639462046FFF73A
S3150002B000F3FE33463A4629462046FFF7C3FD0AE0D9
S3150002B010324639462046FFF70FFC33463A46294662
S3150002B0202046FFF76BFBFFF763F9012084F8C200A5
S3150002B030F8BD00002DE9FF4F85B01F46DDE91398E4
S3150002B04093460446DDF848A0FCF7F0FA401C10F0DF
S3150002B05094F9060007D02046FCF7E8FA0246214694
S3150002B0603046FCF787FA402010F087F905001348AE
S3150002B0701349A0EB01004FEAD0004FF0050101EBA6
S3150002B080004413D0CDE9007ACDE902982B465A4600
S3150002B09030460699FDF7F0F929463046FDF7AAFA39
S3150002B0A02046324607A110F045F803E020460EA1DD
S3150002B0B010F03CF809B02846BDE8F08F74580A0033
S3150002B0C0DC570A005B4D69616F5549204C4F475D5D
S3150002B0D02D3E494E464F3A0A4164644974656D3ABB
S3150002B0E02025730A000000005B4D69616F554920F7
S3150002B0F04C4F475D2D3E494E464F3A0A6D616C6C88
S3150002B1006F63206572726F720A00000070B50446A2
S3150002B11000F028FA0546002C20D020460DF018FD36
S3150002B120A06A4169A14201D100214161A06A8169F7
S3150002B130A14201D121698161D4E904014161D4E9C5
S3150002B14004010861A06A016A491E016220460FF0E5
S3150002B15017F920680FF014F92069286070BD000005
S3150002B1602DE9FC410025DFF8948000954FF48076A6
S3150002B17001242F46019530460FF0EAFD38B1D8F882
S3150002B1800403204203D030460FF0D8FD2543361D76
S3150002B19064007F1CB6B2082FEDD34FF4BE7420466E
S3150002B1A00FF0D6FD48B120460FF0C8FD45F0004528
S3150002B1B06A46022100200FF0B9FC15F0FF0F16D0E7
S3150002B1C0012600242E420ED008EB8401D1F8100588
S3150002B1D0D1F81015C0F30520094AC1F3014152F80E
S3150002B1E0242002B190477600641C082CEAD3002D75
S3150002B1F002DA684614F0A2F8BDE8FC81006000405D
S3150002B200B876002010B5FDF765FC0CF099FBBDE899
S3150002B2101040FDF751BC000010B586B0FDF75AFC90
S3150002B220FDF7B8FB0CF076FB40A00CF0FDFD4248A2
S3150002B2300DF1040C847F437F10F81C2FC17B8CE830
S3150002B2401E00817B009183893CA220213F4802F0A7
S3150002B25009FF3E480CF0F8FD3DA00CF0C5FD3FA0ED
S3150002B2600CF012FE394B40A2FF21A3F25F1002F04E
S3150002B270F9FE47484749484A401AC108032000EBED
S3150002B2800140044645A10FF055FF43490A22A1F5A4
S3150002B2900A700AF0CDFA020006D006B02046BDE8D2
S3150002B2A0104045A10FF046BF0CF0C4FC01462248EF
S3150002B2B0B030FCF791F90CF0A7FC01461E48B030FD
S3150002B2C0FCF78AF90CF01AFD01461B48B030FCF770
S3150002B2D083F90CF083FC01461748B030FCF77CF981
S3150002B2E00CF038FD01461448B030FCF775F91248E7
S3150002B2F0B030FCF79BF910490246B031002301F544
S3150002B30080600AF010FD030005D00B4A2046B032D9
S3150002B3102DA10FF016FF08484FF48061B030FCF7FC
S3150002B32050F906B0BDE81040FDF702BE4750535F24
S3150002B3305265636F61726400E078002025642564BB
S3150002B34025642025642D25642D256400178100209F
S3150002B350475053205265636F6172640042696B65A0
S3150002B3602057617463680000303A2F5BD6F7D2B378
S3150002B3705D2F5BC4DAB4E6C9E8B1B85D2F5B47500E
S3150002B38058CEC4BCFEBCD05D2F25732E67707800E4
S3150002B39074580A00DC570A00B87F002042656769C4
S3150002B3A06E205265636F617264206770735F7061AD
S3150002B3B074683A2025730000665F6F70656E2073AD
S3150002B3C0756C743A20256400665F7772697465202D
S3150002B3D025732073756C743A2025640010B501F04C
S3150002B3E035F82649264A891AC908032202EB01447E
S3150002B3F0002838D00CF098FC01462248FCF7ECF8FD
S3150002B4000CF066FC01461F48FCF7E6F80CF0D0FB90
S3150002B41001461C48FCF7E0F81A48FCF707F91949F7
S3150002B4200246002301F580600AF07DFC4FF480613C
S3150002B4301448FCF7C6F8144809F00AFB0200204635
S3150002B44017D012A10FF076FE1A489FED190A80ED69
S3150002B450090A07F0EDFF0CF057FAFDF767FABDE8A7
S3150002B4601040FDF729BB2046BDE8104012A10FF09F
S3150002B4705DBE1AA10FF05AFEE6E7000074580A00F4
S3150002B480DC570A0090790020907D002067707820B2
S3150002B49066696C65207265636F72646564206661B5
S3150002B4A0696C65642073756C743A2025640000002B
S3150002B4B00000000028300020534443617264206E6D
S3150002B4C06F742072656164792C2063616E6E6F748D
S3150002B4D0207265636F6172640000000067707820F5
S3150002B4E066696C65207265636F726465640000004C
S3150002B4F070B51B49496891F8F210012903D0BDE8DD
S3150002B5007040FCF793B80025041E2E4603D0FCF7C4
S3150002B5108DF802461DE0304670BD00BFA0F1FC0169
S3150002B520022901D2062112E0F82801D305210EE0F4
S3150002B530F02801D304210AE0E02801D3032106E022
S3150002B540C02801D3022102E00006E4D401210C4402
S3150002B5506D1C207808B19542E0DB284670BD0000DC
S3150002B560183D002038B5094C606868B90848009053
S3150002B570084809495E23401AC008052101EB00402C
S3150002B58006A20CA10FF0E5FD606838BD183D00204B
S3150002B590B552040074580A00DC570A002E5C6C6926
S3150002B5A0625C4D69616F55495C636F72655C756972
S3150002B5B02E6300005B4D69616F5549204C4F475D14
S3150002B5C02D3E4552524F523A0A4025733A25643A65
S3150002B5D025733A554920696E7374616E6365206EF0
S3150002B5E06F742063726561746564210A000000004D
S3150002B5F010B504460FF0CEFE0AF0E6FE05492046D7
S3150002B600FEF778FC0AF0DAFE2046BDE81040FEF7A7
S3150002B610E5BE0000FC9B00202DE9FC4105460068C2
S3150002B620664C876902208DF80400217829B100262C
S3150002B63001297CD0022901D101E02070BAE0E0683C
S3150002B64000B9E760FEF7BCFD06E000BFFFF757F959
S3150002B650B86900286CD0074655F8C41BB8698969D1
S3150002B66088423869009095E80700BB68A5F1C405D1
S3150002B670ECD1FFF744F9E068B4F90210006900EE74
S3150002B680901AB0F90000F8EEE00A00EE100A05F191
S3150002B69054000746B8EEC00A01F0C2F9BDEEC00A70
S3150002B6A010EE100A6080E068B4F90410006900EE3A
S3150002B6B0901AB0F90200F8EEE00A00EE100A3846D7
S3150002B6C0B8EEC00A01F0ACF9BDEEC00A10EE100ADF
S3150002B6D0A080E068B4F90610006900EE901AB0F98D
S3150002B6E00400F8EEE00A00EE100A3846B8EEC00A88
S3150002B6F001F096F9BDEEC00A10EE100AE080E0688D
S3150002B700B4F90810006900EE901AB0F90600F8EED6
S3150002B710E00A00EE100A3846B8EEC00A01F080F9D7
S3150002B720BDEEC00A10EE100A208101A801E036E043
S3150002B73016E0FEF7F5FD01270097208983B2E0881F
S3150002B74082B2A08881B2608880B2FEF76BFD95F85E
S3150002B750C300012818D0022819D003282AD11AE0DA
S3150002B760174800780328FFF46FAF16480090164872
S3150002B77016493B23401AC008052101EB004014A2DA
S3150002B7801BA10FF0E6FC67E7E068406901E0E068AC
S3150002B7908069E0600EE0277085F8C3600AE0E06821
S3150002B7A00327416811B12846884718B12670E6601A
S3150002B7B085F8C370FEF79CFDBDE8FC81A03E002023
S3150002B7C034520400138C070074580A00DC570A002E
S3150002B7D02E5C6C69625C4D69616F55495C77696480
S3150002B7E06765745C6D6963726F5F6163742E630073
S3150002B7F05B4D69616F5549204C4F475D2D3E455261
S3150002B800524F523A0A4025733A25643A25733A6DE5
S3150002B8106963726F5F6974656D2D3E6E657874201B
S3150002B8203D204E554C4C0A002DE9F0412DED028B80
S3150002B83086B0044690F8C2000E9D1E4617468846FC
S3150002B84004283CD1B4F8B80000EE906A00EE100A63
S3150002B8509FED318AB8EEE01AB8EE400AF2EE001A0F
S3150002B860F0EE480AB43408F024FFBCEEC00A01EE3A
S3150002B870105AF2EE001A10EE100AB8EEC11A208023
S3150002B880A088F0EE480A00EE100AB8EE400A08F068
S3150002B89010FFBCEEC00ABAB21FFA88F110EE100A07
S3150002B8A080B26080CDE90006029534F8B4392046AC
S3150002B8B0FEF754FDB4F8B800401CA4F8B800B4F87A
S3150002B8C0B400B04224D1B4F8B600A84220D1002078
S3150002B8D0A4F8B80014216846FBF773FE20680FA18E
S3150002B8E00268684602F0D6FB05EBD57007EB6000EE
S3150002B8F081B208F1050080B26A46FEF7AFFC03206A
S3150002B90084F8C200012006B0BDEC028BBDE8F081CE
S3150002B910FEF7EEFC0020F6E7000000002573204F3C
S3150002B9204B21000070B54FF4807630460EF0E1FAF6
S3150002B930114CB50560B130460EF0E2FA0120C5F8A9
S3150002B9400803607920B901206071216800208847C8
S3150002B9504FF4827630460EF0CCFA00280AD03046F2
S3150002B9600EF0CEFA0220C5F808032168BDE8704041
S3150002B9700120084770BD0000B02F002070B52DEDE4
S3150002B980028B88B00446182102A8FBF71AFE21682A
S3150002B990B4F8D400D4F8D050C968203800B2096887
S3150002B9A0083D2BB291ED088A00900C220421204614
S3150002B9B0FEF7A2FB00285ED094F8C33003200621CE
S3150002B9C01E220826012B11D0022B17D0CDE900101A
S3150002B9D01E3DABB231469FED2A0A2046FEF7C0FF56
S3150002B9E02068C06800680168F1B11FE0CDE9001067
S3150002B9F01E3DABB23146B0EE480A06E0CDE9001074
S3150002BA001E3DB1EE480AABB231462046FEF7A8FF0C
S3150002BA102068C068006881680029E1D0007D01289D
S3150002BA20DED120468847DBE716A101602068C068A0
S3150002BA300468607D10B1012816D109E0606814A27D
S3150002BA4018210068009002A8236802F00BFB0BE0A5
S3150002BA5060680068FCF71CF8CDE900010EA2182107
S3150002BA6002A8236802F0FEFA1921304602AAFEF75E
S3150002BA70F5FBFEF73DFC08B0BDEC028B70BD000085
S3150002BA80000000004E756C6C206E616D6500000052
S3150002BA9025733A256420000025733A252E32662046
S3150002BAA000000000F0B5044600688DB01821C06899
S3150002BAB00068056802A8FBF784FD00260896D4F8FC
S3150002BAC0C800FEF733FCFEF77BFB02278DF83070C9
S3150002BAD00CA8FEF725FC94F8C5100DB12A4600E025
S3150002BAE073A20020FEF7BAFB2068C0680068417D99
S3150002BAF021B101290AD0032919D113E040686FA2A6
S3150002BB001821036802A802F0ADFA10E04068006846
S3150002BB10FBF7BEFFCDE9000169A2182102A802F0D7
S3150002BB20A1FA04E04168182202A8FBF773FD02A8F5
S3150002BB30FFF7DEFC644D401E02AA6988C3B2505C60
S3150002BB408DF8200095F800C0BCF1000F06D0BCF1BC
S3150002BB50010F09D0BCF1020F4AD11AE020460BF0C0
S3150002BB6083FE0120287043E094F8C300012804D024
S3150002BB70022805D003283BD107E019B3491E02E08B
S3150002BB80994235D2491C698032E084F8C3602F702D
S3150002BB902EE094F8C330012B04D0022B13D0032BD2
S3150002BBA026D123E02368DB681B685B7D032B05D067
S3150002BBB0A0F13003092B1BD2401C0FE0A0F1210398
S3150002BBC05D2BF9D314E02368DB681B685B7D032BCE
S3150002BBD006D0A0F13103082B06D909E0505407E03C
S3150002BBE0A0F122035C2B03D8401EF7E72E706E806D
S3150002BBF094F8C500052101EB400102AA0020FEF7D8
S3150002BC002DFB09960A960B9694F8C50008AB00EB35
S3150002BC104000C01CADF8260009A800902B4807C8B2
S3150002BC20FEF76DFEBDF82A30BDF82820BDF82610B5
S3150002BC30BDF82400FEF7CAFA2068C0680068407D95
S3150002BC4038B902A8FBF71DFD2168C9680968496869
S3150002BC5008602068C0680068407D01280BD102A8F0
S3150002BC6002F0DAFC51EC100BFBF73EFF2168C968C3
S3150002BC700968496808602068C0680068417D032930
S3150002BC8003D1406802A9FBF7F3FC9DF8203010A20D
S3150002BC90182102A802F0E6F994F8C50002AA00EB00
S3150002BCA080011E20FEF7DAFAFEF722FB0DB0F0BD88
S3150002BCB04E756C6C204E616D6500000025640000B7
S3150002BCC0252E326600000000B03E00205C3D0020BA
S3150002BCD0307825303278000038B50D0004464DD054
S3150002BCE084F8C320287A072848D2DFE800F0474FB5
S3150002BCF065045C475600E868002843D000680028BF
S3150002BD0040D0817D61B3407D88B101280FD00228E1
S3150002BD1027D0032829D03A483A49BDE83840401A84
S3150002BD20C008052101EB004037A10FF0FFB9E96910
S3150002BD30204659B1884700BF94F8C30003281DD195
S3150002BD402068C0680068017D19B106E0FFF716FE9B
S3150002BD50F2E7816809B120468847206807F08AF829
S3150002BD6010E0204600F094FCF7E7E969204631B17D
S3150002BD70884700BF94F8C3000328EED038BDFFF70A
S3150002BD8091FEF7E7052084F8C20038BDE96961B97A
S3150002BD9094F8C3000328F5D038BDE96929B92046CD
S3150002BDA000F0BCFEF4E7E96911B120468847EFE7E7
S3150002BDB0204600F0D1FDEBE7E96939B195F83C0080
S3150002BDC020B920468847012085F83C00B4F8D40003
S3150002BDD00C22203800B20090B4F8D00004210838B2
S3150002BDE003B22046FFF720FD08B1FEF781FA94F868
S3150002BDF0C3000028D0D0002085F83C00C2E700002E
S3150002BE0074580A00DC570A005B4D69616F55492078
S3150002BE104C4F475D2D3E494E464F3A0A556E6B6E64
S3150002BE206F77206461746120747970650A0A000074
S3150002BE3070B50E460446002194F8C200012871D05E
S3150002BE40002502281DD005284BD1A4F8B650A4F827
S3150002BE50B450A4F8B850A4F8C050022084F8C20026
S3150002BE60204600F00EFE6D1C0146082DF8D322680E
S3150002BE70002A36D02046916ABDE870401346FFF785
S3150002BE801DB8012E05D0022E11D0032E1CD0226819
S3150002BE90F0E72268002A24D01369002B21D020461D
S3150002BEA0916AFFF70BF820686060006950E022682B
S3150002BEB0002A16D05369002B13D02046916AFEF74A
S3150002BEC0FDFF206860602BE0206818B1007A48B157
S3150002BED0072828D00121204600F0D3FD042084F84B
S3150002BEE0C20070BD0026204600F0CBFD761C01463E
S3150002BEF0082EF8D32268D06A0028F2D040690028BA
S3150002BF00EFD0A4F8BA50A4F8BE50D16A20464B69C5
S3150002BF10FEF7D4FF2068816AC86120686060C06A43
S3150002BF20406915E016E00025204600F0AAFD6D1CCA
S3150002BF300146082DF8D32268D06A0028D1D0C369F9
S3150002BF402046996AFEF7BAFF20686060C06AC06937
S3150002BF50206070BD2368002BFBD06268002AF8D0EF
S3150002BF602046996AFEF7AAFF002EF2D0022084F834
S3150002BF70C20060E702490248091F096800680847CB
S3150002BF80702F00200422002101480CF0D9BC0000C9
S3150002BF90004002401CB50D490D4AD1E90001CDE928
S3150002BFA000011F20ADF800000848694608300FF06E
S3150002BFB0D1FF08B103F0B6FF04480121083010F0A2
S3150002BFC00FF8024808300FF0B9FF1CBD24520400D6
S3150002BFD0750004002DE9FE434FF4827840460FF0C7
S3150002BFE0F3FB4C4F00254C4C012600B340460FF0A4
S3150002BFF0F3FB94F82E0010B194F82F10D1B18DF8FE
S3150002C0000050616801912189ADF80810E26832B1E9
S3150002C010218B618362602181E56010B102E02574A3
S3150002C02000E03E6021686846884784F82F5094F8FD
S3150002C0302E0060B34FF4807738460FF0C5FB30B35D
S3150002C04038460FF0C9FB628B94F82D108A420AD942
S3150002C050A2EB010080B260832289A2EB0000626833
S3150002C06002EB400005E007D1E06828B184F82F60B2
S3150002C07065830FF097FB04E08A4202D184F82F60B1
S3150002C080658340460FF0A8FB2248001D06604FF468
S3150002C090887738460FF098FB48B138460FF09CFB7C
S3150002C0A0257402208DF800002168684688474FF4FF
S3150002C0B08A7738460FF088FB28B138460FF08CFB9A
S3150002C0C02574BDE8FE834FF000484FF48C7967690A
S3150002C0D01DE000BFB7FA87F028FA00F109EB8005E8
S3150002C0E08F4328460FF070FB88B128460FF074FB89
S3150002C0F0A5F58C75E8088DF8040045F38000401C10
S3150002C1008DF800608DF80500216868468847002F83
S3150002C110E0D1D6E7007000402477002010B5012256
S3150002C1200DA1002009F05EFB0446002008F0FCF891
S3150002C1300B480C4A0949801AC008032202EB004048
S3150002C1401CB101220A7008A102E000220A700AA1AB
S3150002C150BDE810400EF0EABF00000000CC3E002011
S3150002C16074580A00DC570A00556E6D6F756E74209E
S3150002C1706661696C65642E00466174667320556E4D
S3150002C1806D6F756E74656420537563636573732E84
S3150002C1900000000010B501220BA1002009F022FBCD
S3150002C1A00446002008F0C0F808480949401AC008A9
S3150002C1B0032101EB004210460CB106A100E009A1E1
S3150002C1C0BDE810400EF0B2BF0000000074580A002D
S3150002C1D0DC570A00556E6D6F756E74206661696C68
S3150002C1E065642E00466174667320556E6D6F756EBA
S3150002C1F074656420537563636573732E00000000D3
S3150002C2001CB5124801900020009001AA694610A0B0
S3150002C21008F072FE02000AD00E480F49401AC00802
S3150002C220032101EB00400DA10EF084FF1CBD019914
S3150002C230009A88694989801E484351430D4AC00ABB
S3150002C240C90AC2E90001401A90601CBDB0AB0020C9
S3150002C250303A000074580A00DC570A00665F6765C8
S3150002C2607466726565206661696C65642E20256454
S3150002C27000000000D03E002070B508200EF027FC1A
S3150002C28008200EF07FFC01211E4808F0C9F81E485E
S3150002C2901E4A0325801AC00805EB0044002007F059
S3150002C2A077FF02466D1E02D00028F7D106E02AB1BA
S3150002C2B02046BDE8704016A10EF03CBF1C4E1D483C
S3150002C2C07169884740684FF48011B1FBF0F57169D6
S3150002C2D01848884700680122B0FBF5F016A11748F6
S3150002C2E009F080FA07491C3920B10020087020465F
S3150002C2F013A103E001200870204615A1BDE8704095
S3150002C3000EF014BFE83E002074580A00DC570A00FB
S3150002C3104469736B20696E697469616C697A6174C8
S3150002C320696F6E206661696C65642E202564000063
S3150002C330C84C040088390A00303A0000B0AB00202D
S3150002C3404D6F756E74206661696C65642E0000001F
S3150002C3504661746673204D6F756E746564205375FD
S3150002C36063636573732E000070B508200EF0AFFB91
S3150002C37008200EF007FC01211B4808F051F81B4863
S3150002C3801B4A0325801AC00805EB0044002007F06B
S3150002C390FFFE02466D1E02D00028F7D106E02AB142
S3150002C3A02046BDE8704013A10EF0C4BE194E1A48CD
S3150002C3B07169884740684FF48011B1FBF0F57169E5
S3150002C3C01548884700680122B0FBF5F013A114480E
S3150002C3D009F008FA0028204601D012A100E015A1B2
S3150002C3E0BDE870400EF0A2BEE83E002074580A0076
S3150002C3F0DC570A004469736B20696E697469616C63
S3150002C400697A6174696F6E206661696C65642E2053
S3150002C41025640000C84C040088390A00303A00003E
S3150002C420B0AB00204D6F756E74206661696C6564F1
S3150002C4302E0000004661746673204D6F756E74653A
S3150002C4406420537563636573732E00000148007898
S3150002C45070470000CC3E002000F0E6BC70B50E46E8
S3150002C460144900EB400001EBC0051446E86A183592
S3150002C47020B101280FD0022805D113E0284600F08A
S3150002C48007FDA04201D2002411E022463146284689
S3150002C49000F043FD0BE0284600F0FAFCA042F4D27D
S3150002C4A00446F2E73146284600F00AFD04462046D5
S3150002C4B070BD0000FC6D0020014902480CF090BAE4
S3150002C4C0807700200030004002494FF0402015F0EE
S3150002C4D0CBBF0000D477002038B50E480E4C00259D
S3150002C4E0C0F80851D0F808110091214615F08AFFCC
S3150002C4F000280ED1A07FFF2801D00EF0EDFB657754
S3150002C5002572D4E9002101B004F10800BDE83040EB
